:020000040800F2
:1000000000C0002039160008050400080704000895
:10001000090400080B0400080D040008000000009B
:100020000000000000000000000000000F040008B5
:100030001104000800000000130400081504000863
:100040008116000881160008811600088116000834
:100050008116000881160008811600088116000824
:100060008116000881160008811600088116000814
:100070008116000881160008811600088116000804
:1000800081160008811600088116000881160008F4
:1000900081160008811600088116000881160008E4
:1000A00081160008811600088116000881160008D4
:1000B00081160008811600088116000881160008C4
:1000C00081160008811600088116000881160008B4
:1000D000811600081D04000881160008811600081A
:1000E0008116000881160008811600088116000894
:1000F0008116000881160008811600088116000884
:100100008116000881160008811600088116000873
:100110008116000881160008811600088116000863
:100120008116000881160008811600088116000853
:1001300000000000000000000000000000000000BF
:1001400000000000000000000000000000000000AF
:10015000000000000000000000000000000000009F
:10016000000000000000000000000000000000008F
:10017000000000000000000000000000000000007F
:10018000000000000000000000000000000000006F
:10019000000000000000000000000000000000005F
:1001A000000000000000000000000000000000004F
:1001B000000000000000000000000000000000003F
:1001C000000000000000000000000000000000002F
:1001D000000000000000000000000000000000001F
:0401E0005FF8E0F1F3
:1001E40070B5860747D0541E002A3ED00346CAB2D3
:1001F40001E0013C39D303F8012B9D07F9D1032C0D
:100204002CD9CDB205EB05250F2C1A4605EB054577
:1002140034D9A4F1100C2CF00F0603F1100EB644DF
:100224004FEA1C1C156055609560D560103272450C
:10023400F8D10CF1010214F00C0F03EB021204F0DC
:100244000F0C13D0ACF1040323F003030433134461
:1002540042F8045B9A42FBD10CF003042CB1C9B2FE
:100264001C4403F8011B9C42FBD170BD6446134639
:10027400002CF4D1F9E703461446C0E7A446E1E7AD
:1002840070B50F4B0F4DAB42A3EB050607D000240E
:10029400B61055F8043B01349847A642F9D801F04A
:1002A400EFF9094D094B5E1BAB424FEAA60606D097
:1002B400002455F8043B01349847A642F9D870BD90
:1002C4001817000818170008181700081C1700084A
:1002D40010B5054C237833B9044B13B10448AFF37C
:1002E40000800123237010BD0C00002000000000DA
:1002F4008416000808B5034B1BB103490348AFF348
:10030400008008BD000000001000002084160008D2
:1003140082B00A4B9A6942F020029A619A6902F00B
:1003240020020092009A9A6942F004029A619B6941
:1003340003F004030193019B02B0704700100240D4
:1003440072B6FEE708B50A480A4B03604FF4E1337E
:10035400436000238360C36003610C2242618361B4
:10036400C36100F06FF900B908BDFFF7E9FF00BFF2
:10037400780000200038014000B591B02822002107
:1003840006A8FFF72DFF0023019302930393049320
:100394000593012206924FF4803307930A920222B6
:1003A4000D920E934FF4E0130F9306A800F0A8FBF0
:1003B40080B90F23019302210291002303934FF488
:1003C40080620492059301A800F0CCFD20B911B01D
:1003D4005DF804FBFFF7B4FFFFF7B2FF08B500F0C8
:1003E40055FBFFF7C9FFFFF793FFFFF7ABFF48206B
:1003F40001F004F9014801F04FF9FEE7280000205C
:10040400FEE7FEE7FEE7FEE7FEE77047704770474A
:1004140008B500F04DFB08BD08B5024800F0CEF960
:1004240008BD00BF7800002082B00E4B9A6942F0EC
:1004340001029A619A6902F001020092009ADA6953
:1004440042F08052DA61DB6903F080530193019B2F
:10045400054A536823F0E06343F00073536002B02D
:10046400704700BF001002400000014030B587B063
:100474000023029303930493059302681B4B9A424F
:1004840001D007B030BD03F558439A6942F4804265
:100494009A619A6902F480420092009A9A6942F041
:1004A40004029A619B6903F004030193019B4FF4D6
:1004B4000073029302230393032305930C4D02A9B3
:1004C400284600F02BFE4FF480630293002403942B
:1004D400049402A9284600F021FE22462146252044
:1004E40001F058F8252001F065F8CAE7003801400A
:1004F40000080140026802F10C0353E8003F23F4B2
:1005040090730C3242E800310029F3D1026802F101
:10051400140353E8003F23F00103143242E800318E
:100524000029F3D1036B012B05D0202380F842303E
:10053400002303637047026802F10C0353E8003F91
:1005440023F010030C3242E800310029F3D1ECE728
:1005540090F84130DBB2212B01D002207047836830
:10056400B3F5805F17D0036A5A1C02621A780368D5
:100574005A60C38C9BB2013B9BB2C3844BB90268E3
:10058400D36823F08003D3600268D36843F0400348
:10059400D360002070470369002BE4D1036A1B88F1
:1005A4000268C3F308035360036A02330362E0E79B
:1005B40010B504460268136923F44053C1680B4321
:1005C400136183680269134342691A430168CB6863
:1005D40023F4B05323F00C031343CB600268536934
:1005E40023F4407381690B4353610268134B9A42AD
:1005F40020D000F073FD024602EB820202EB82027D
:1006040063689B00B2FBF3F20D48A0FB0231490979
:10061400642303FB11231B013233A0FB03035B0997
:1006240003F0F00202EB011203F00F0321681344FC
:100634008B6010BD00F062FD0246DDE7003801402A
:100644001F85EB5160B310B5044690F8413013B3E5
:10065400242384F841302268D36823F40053D36000
:100664002046FFF7A5FF2268136923F49043136122
:100674002268536923F02A0353612268D36843F440
:100684000053D36000206064202384F8413084F850
:100694004230606310BD80F84030FFF7E7FED7E7D3
:1006A40001207047704708B50168CA6822F040020B
:1006B400CA60202280F84120FFF7F4FF002008BD23
:1006C4007047704708B5406A0023C385C384FFF7A9
:1006D400F8FF08BD704790F84230DBB2222B69D195
:1006E4008368B3F5805F4FD0826AB3F5805F04D02E
:1006F400002B56D10369002B53D103685B68137038
:10070400836A01338362C38D9BB2013B9BB2C38571
:10071400002B51D100B583B00268D36823F02003C5
:10072400D3600268D36823F48073D360026853698A
:1007340023F001035361202380F8423000234363F4
:10074400036B012B33D100230363026802F10C0312
:1007540053E8003F23F010030C3242E80031002933
:10076400F3D103681A6812F0100F06D00022019228
:100774001A6801925B680193019B818DFFF7AAFFC0
:10078400002003B05DF804FB0269002AACD1826A40
:1007940003685B68C3F308031380836A02338362CC
:1007A400B1E703685B6803F07F031370A8E7FFF702
:1007B40087FFE5E7022070470020704710B582B03C
:1007C400044602681368D068516913F00F0F09D109
:1007D40013F0200F0CD010F0200F09D02046FFF7A3
:1007E4007AFF16E011F0010115D110F4907F12D1B7
:1007F400216B012979D013F0800F03D010F0800F02
:1008040040F0138113F0400F03D010F0400F40F07C
:10081400108102B010BD13F0010F06D010F4807FD8
:1008240003D0626C42F00102626413F0040F04D03E
:1008340019B1626C42F00202626413F0020F04D038
:1008440019B1626C42F00402626413F0080F07D01D
:1008540010F0200F00D119B1626C42F008026264FA
:10086400626C002AD5D013F0200F02D010F0200FB4
:1008740029D123685B6903F04003626C12F0080F0E
:1008840000D163B32046FFF735FE23685B6913F09C
:10089400400F20D0226802F1140353E8003F23F0F4
:1008A4004003143242E800310029F3D1E36B73B101
:1008B400624A5A63E06B00F071FD0028A9D0E06B36
:1008C400436B9847A5E72046FFF705FFD1E720468D
:1008D400FFF7F7FE9DE72046FFF7F3FE99E7204672
:1008E400FFF7EFFE0023636493E713F0100F82D049
:1008F40010F0100F3FF47FAF0023019313680193AE
:1009040053680193019B536913F0400F51D0E26B7C
:1009140013685B689BB2002B3FF47BAFA18D9942B7
:100924007FF677AFE3859369202B37D0226802F1F5
:100934000C0353E8003F23F480730C3242E8003187
:100944000029F3D1226802F1140353E8003F23F095
:100954000103143242E800310029F3D1226802F184
:10096400140353E8003F23F04003143242E80031FB
:100974000029F3D1202384F8423000232363226822
:1009840002F10C0353E8003F23F010030C3242E859
:1009940000310029F3D1E06B00F0DCFC0223636337
:1009A400A18DE38D9BB2C91A89B22046FFF792FE4E
:1009B4002FE7A18DE38D9BB2C91A89B2E38D9BB257
:1009C400002B3FF426AF00293FF423AF226802F145
:1009D4000C0353E8003F23F490730C3242E80030D8
:1009E4000028F3D1226802F1140353E8003F23F0F6
:1009F4000103143242E800300028F3D1202384F8A4
:100A0400423000232363226802F10C0353E8003FC1
:100A140023F010030C3242E800300028F3D1022303
:100A240063632046FFF756FEF3E62046FFF790FD8A
:100A3400EFE62046FFF737FEEBE600BFC9060008E5
:100A440010B504460E4B1A784FF47A73B3FBF2F3E5
:100A54000C4A1068B0FBF3F000F0BAFD68B90F2C33
:100A640001D901200AE0002221464FF0FF3000F0B6
:100A740091FD054B1C60002000E0012010BD00BF6B
:100A840000000020080000200400002008B5074AE8
:100A9400136843F010031360032000F069FD0F2076
:100AA400FFF7CEFFFFF7C0FC002008BD0020024086
:100AB400034A1168034B1B780B441360704700BF53
:100AC400C000002000000020014B1868704700BFE0
:100AD400C000002082B0084B1B68084AA2FB032315
:100AE4005B0A00FB03F3019300BF019B5A1E0192B2
:100AF400002BF9D102B0704708000020D34D6210DA
:100B0400002800F0F18170B582B00446036813F048
:100B1400010F2CD0994B5B6803F00C03042B1DD000
:100B2400964B5B6803F00C03082B12D06368B3F593
:100B3400803F41D0002B55D103F1804303F50433AA
:100B44001A6822F480321A601A6822F480221A6029
:100B540037E08A4B5B6813F4803FE7D0874B1B6810
:100B640013F4003F03D06368002B00F0BF812368B7
:100B740013F0020F75D0814B5B6813F00C0F5FD03C
:100B84007E4B5B6803F00C03082B54D02369002BC5
:100B940000F08A807A4B01221A60FFF795FF054620
:100BA400764B1B6813F0020F75D1FFF78DFF401BC6
:100BB4000228F5D903209EE1704A136843F4803378
:100BC4001360636843B3FFF77FFF05466B4B1B68F5
:100BD40013F4003FCBD1FFF777FF401B6428F5D90E
:100BE400032088E1B3F5A02F09D0644B1A6822F4DE
:100BF40080321A601A6822F480221A60E1E703F155
:100C04008043A3F53C331A6842F480221A601A68C0
:100C140042F480321A60D4E7FFF756FF0546574B7B
:100C24001B6813F4003FA2D0FFF74EFF401B64285B
:100C3400F5D903205FE1514B5B6813F4803FA5D1E4
:100C44004E4B1B6813F0020F03D02369012B40F0B5
:100C54004F814A4A136823F0F803616943EAC103E8
:100C64001360236813F0080F33D0A369002B5CD002
:100C7400434B0122C3F88024FFF726FF05463F4B70
:100C84005B6A13F0020F21D1FFF71EFF401B0228FD
:100C9400F5D903202FE1394A136823F0F803616979
:100CA40043EAC1031360DCE7354B00221A60FFF707
:100CB4000BFF0546314B1B6813F0020FD1D0FFF731
:100CC40003FF401B0228F5D9032014E10120FFF79C
:100CD40001FF236813F0040F00F09680274BDB69B3
:100CE40013F0805F34D1254BDA6942F08052DA6127
:100CF400DB6903F080530193019B0125214B1B68A1
:100D040013F4807F26D0E368012B3DD0002B53D110
:100D140003F1804303F504331A6A22F001021A62D4
:100D24001A6A22F004021A6233E0154B0022C3F857
:100D34008024FFF7C9FE0546104B5B6A13F0020FCF
:100D4400C7D0FFF7C1FE401B0228F5D90320D2E02B
:100D54000025D3E70B4A136843F480731360FFF74D
:100D6400B3FE0646074B1B6813F4807FCBD1FFF715
:100D7400ABFE801B6428F5D90320BCE000100240C0
:100D840000004242007000405F4A136A43F00103CE
:100D94001362E36833B3FFF797FE06465A4B1B6AA8
:100DA40013F0020F2FD1FFF78FFE801B41F288331F
:100DB4009842F3D903209EE0052B09D0524B1A6ABE
:100DC40022F001021A621A6A22F004021A62E0E7AF
:100DD4004D4B1A6A42F004021A621A6A42F0010286
:100DE4001A62D6E7FFF770FE0646474B1B6A13F0FC
:100DF400020F08D0FFF768FE801B41F28833984247
:100E0400F3D9032077E0E5B9E369002B72D03E4AB9
:100E1400526802F00C02082A56D0022B17D03B4B22
:100E240000221A66FFF750FE0446374B1B6813F086
:100E3400007F47D0FFF748FE001B0228F5D90320A6
:100E440059E0314AD36923F08053D361DCE72F4B57
:100E540000221A66FFF738FE05462B4B1B6813F079
:100E6400007F06D0FFF730FE401B0228F5D903208F
:100E740041E0236AB3F5803F1AD023494B6823F439
:100E84007413226A606A024313434B601F4B0122AE
:100E94001A66FFF719FE04461B4B1B6813F0007F0C
:100EA4000ED1FFF711FE001B0228F5D9032022E022
:100EB400154A536823F40033A1680B435360DCE7FD
:100EC400002018E0002016E0012B16D00E4B5B68C2
:100ED40003F48031226A914211D103F47013626ADF
:100EE40093420ED1002006E001207047012002E069
:100EF400012000E0002002B070BD0120FBE70120CA
:100F0400F9E70120F7E700BF001002400000424269
:100F14000F4B5B6803F00C02082A01D00D487047A0
:100F2400C3F383420C49885C13F4803F0BD0084B15
:100F34005B68C3F34043094AD35C064A02FB00F0F2
:100F4400B0FBF3F07047064B03FB00F0704700BFA3
:100F54000010024000127A00F0160008EC16000897
:100F640000093D00002800F0A08070B50D4604463D
:100F7400524B1B6803F007038B420BD24F4A136892
:100F840023F007030B431360136803F007038B423A
:100F940040F08D80236813F0020F17D013F0040F74
:100FA40004D0474A536843F4E0635360236813F062
:100FB400080F04D0424A536843F460535360404AD4
:100FC400536823F0F003A1680B435360236813F0C4
:100FD400010F31D06368012B20D0022B25D0384A71
:100FE400126812F0020F64D035494A6822F00302F5
:100FF40013434B60FFF768FD0646314B5B6803F013
:101004000C036268B3EB820F16D0FFF75DFD801B03
:1010140041F288339842F0D9032045E0284A126807
:1010240012F4003FE0D101203EE0254A126812F09C
:10103400007FD9D1012037E0204B1B6803F0070360
:10104400AB420AD91D4A136823F007032B431360EC
:10105400136803F00703AB422DD1236813F0040F88
:1010640006D0174A536823F4E063E1680B435360E6
:10107400236813F0080F07D0114A536823F4605310
:10108400216943EAC1035360FFF742FF0C4B5B68DD
:10109400C3F303130B4AD35CD8400B4B18600B4BC0
:1010A4001868FFF7CDFC002070BD012070470120B7
:1010B400FAE70120F8E70120F6E700BF002002402C
:1010C4000010024008170008080000200400002057
:1010D400014B1868704700BF0800002008B5FFF7EF
:1010E400F7FF044B5B68C3F30223034AD35CD84085
:1010F40008BD00BF001002400017000808B5FFF744
:10110400E7FF044B5B68C3F3C223034AD35CD840B4
:1011140008BD00BF001002400017000870B582B07F
:101124000024A446ABE0854DAB4214D00CD8A5F501
:101134008015AB420FD005F57025AB420BD0A5F559
:101144008015AB4210D106E07D4DAB4203D005F5CE
:101154008035AB4208D18B68002B5AD0012B53D079
:101164004261082400E0CC68BEF1FF0F53D8064664
:101174004FEA8C0233680F25954023EA050304FAED
:1011840002F2134333604B6813F0805F75D06D4BEC
:101194009A6942F001029A619B6903F00103019389
:1011A400019B4FEA9C02951C674B53F825600CF099
:1011B4000305AD000F23AB4026EA0306634B9842B8
:1011C40030D003F58063984200F0968003F5806385
:1011D400984200F0938003F58063984200F0908079
:1011E40003F58063984200F08D8003F58063984294
:1011F40016D0062317E0CC680434B5E7CC6808346D
:10120400B2E7CC680C34AFE702610824ACE70024F1
:10121400AAE70424A8E7061DACF108029200A9E796
:10122400052300E00023AB4033430232464D45F82A
:1012340022304B6813F4801F66D0454A936843EA12
:101244000E0393604B6813F4001F63D0404AD368C5
:1012540043EA0E03D3604B6813F4003F60D03C4A6A
:10126400536843EA0E0353604B6813F4803F5DD028
:10127400374A136843EA0E0313600CF1010C0B6840
:1012840033FA0CF258D0012202FA0CF203EA020EED
:1012940032EA0303F1D14B68122B3FF644AF122B11
:1012A4003FF662AF01A555F823F000BF5B110008BB
:1012B4006B11000801120008131200086D110008D8
:1012C4006D1100086D1100086D1100086D11000802
:1012D4006D1100086D1100086D1100086D110008F2
:1012E4006D1100086D1100086D1100086D110008E2
:1012F400FB11000807120008012394E7022392E778
:10130400032390E704238EE7114A936823EA0E032C
:10131400936097E70E4AD36823EA0E03D3609AE7F3
:101324000B4A536823EA0E0353609DE7084A136887
:1013340023EA0E031360A0E702B070BD0000221080
:10134400000031100010024000000140000801407C
:1013540000040140034690F82120D2B2022A06D0AC
:1013640004228263002280F8202001207047016853
:101374000A6822F00E020A6001680A6822F001027B
:101384000A60026CC06B012101FA02F2426083F828
:101394002110002083F820007047000008B590F861
:1013A4002130DBB2022B03D004238363012008BD68
:1013B4000268136823F00E0313600268136823F0B5
:1013C4000103136003684C4A93424ED9783A93421E
:1013D40024D01432934230D0143293422FD014329A
:1013E40093422FD0143293422FD0143293422FD0F1
:1013F400143293422FD002F5627293422ED01432EB
:1014040093422DD0143293422CD01432934202D002
:101414004FF4803203E04FF4805200E00122374B56
:101424005A60012380F82130002380F82030436B78
:10143400002B5ED098470020B9E71022EFE74FF465
:101444008072ECE74FF48052E9E74FF48032E6E72C
:101454004FF48012E3E74FF08072E0E70122DEE709
:101464001022DCE74FF48072D9E7254A934224D056
:101474001432934225D01432934224D0143293422E
:1014840024D01432934224D01432934224D0143200
:10149400934224D002F56272934223D014329342D1
:1014A40022D01432934221D01432934202D04FF40A
:1014B400803203E04FF4805200E00122114B5A6065
:1014C400AFE71022FAE74FF48072F7E74FF4805247
:1014D400F4E74FF48032F1E74FF48012EEE74FF077
:1014E4008072EBE70122E9E71022E7E74FF480720C
:1014F400E4E700205BE700BF8000024000040240F4
:101504000800024000000240002808DB0901C9B2BB
:1015140000F1604000F5614080F80013704700F06E
:101524000F000901C9B2014B1954704714ED00E0D2
:1015340000B500F00700C0F1070CBCF1040F28BF90
:101544004FF0040C031D062B0FD9C31E4FF0FF3EB2
:101554000EFA0CF021EA000199400EFA03FE22EA89
:101564000E0241EA02005DF804FB0023EEE70000EE
:10157400074AD36823F4E0631B041B0C000200F445
:10158400E060034343F0BF6343F40033D360704728
:1015940000ED00E010B50446054BD868C0F3022006
:1015A400FFF7C6FF01462046FFF7AEFF10BD00BFA0
:1015B40000ED00E0002807DB00F01F0240090123D2
:1015C4009340024A42F82030704700BF00E100E037
:1015D4000138B0F1807F0BD24FF0E0235861054A07
:1015E400F02182F823100020986107221A617047C5
:1015F4000120704700ED00E070470000094AD2F86E
:10160400FC3043F08073C2F8FC30074B00225A6070
:101614001A6842F001021A60044B03FB00F0044B09
:101624001860704700ED00E0001000E040420F0039
:10163400C4000020FFF7E0FF0B480C490C4A0023CC
:1016440002E0D458C4500433C4188C42F9D3094A74
:10165400094C002301E013600432A242FBD3FEF7DD
:101664000FFEFEF7BBFE7047000000200C000020B8
:10167400201700080C000020C8000020FEE700002E
:10168400F8B500BFF8BC08BC9E467047F8B500BF6B
:08169400F8BC08BC9E4670473B
:10169C000C4941630C4981630C49C1630C490164D9
:1016AC000C4941640C4981644FF07C51C1640B4975
:1016BC000163002141608160C1608161C16101628F
:1016CC00704700001283403D8FC2F53C2DB23D3F68
:1016DC00FE65373F6666E63F2766BD3B0000C041AE
:1016EC000102000002030405060708090A0B0C0D91
:1016FC000E0F101000000000010203040000000097
:0C170C00000000000102030406070809A9
:04171800F9020008CA
:04171C00D5020008EA
:0C172000010000001000000000127A0020
:0400000508001639A0
:00000001FF
