:020000040800F2
:10000000F808002005020008B9130008A91100082B
:10001000AB11000869030008091600080000000081
:10002000000000000000000000000000BD130008F8
:10003000D503000800000000BB130008BF13000830
:100040001F0200081F0200081F0200081F0200080C
:100050001F0200081F0200081F0200081F020008FC
:100060001F0200081F0200081F0200081F020008EC
:100070001F0200081F0200081F0200081F020008DC
:100080001F0200081F0200081F0200081F020008CC
:100090001F0200081F0200081F0200081F020008BC
:1000A0001F0200081F0200081F0200081F020008AC
:1000B0001F0200081F0200081F0200081F0200089C
:1000C0001F0200081F0200081F0200081F0200088C
:1000D0001F020008FD1500081F0200081F0200088B
:1000E0001F0200081F0200081F0200081F0200086C
:1000F0001F0200081F0200081F0200081F0200085C
:100100001F0200081F0200081F0200081F0200084B
:100110001F0200081F0200081F0200081F0200083B
:100120001F0200081F0200081F0200081F0200082B
:1001300000F002F800F03CF80AA090E8000C8244BD
:100140008344AAF10107DA4501D100F031F8AFF29A
:10015000090EBAE80F0013F0010F18BFFB1A43F0A5
:10016000010318479C380000BC380000103A24BF37
:1001700078C878C1FAD8520724BF30C830C144BF0C
:1001800004680C607047000000230024002500264E
:10019000103A28BF78C1FBD8520728BF30C148BFEA
:1001A0000B6070471FB500F062F81FBD10B510BDA1
:1001B00000F0A4F81146FFF7F5FF01F0D9FF00F0B9
:1001C000C2F803B4FFF7F2FF03BC00F0C7F8000069
:1001D0000B49D1F800C04A685CF8043B1068184429
:1001E00042F8040B8C4528BFA1F1DC0C8A4228BFE1
:1001F000A1F1DC02C1F800C04A6020F00040704765
:10020000900200200948804709480047FEE7FEE7C2
:10021000FEE7FEE7FEE7FEE7FEE7FEE7FEE7FEE7B6
:1002200004480549054A064B7047000021140008A0
:1002300031010008F8020020F8080020F80400202E
:10024000F80400200B4910B5A1F17C020A4CC2E968
:100250003712372106E000EB104342F82130074BFC
:1002600000FB03400B1EA1F10101F4DC10BD0120D5
:10027000E8E7000030020020E119D666CD0D01004C
:100280004FF0000200B5134694469646203922BF2F
:10029000A0E80C50A0E80C50B1F12001BFF4F7AF7A
:1002A000090728BFA0E80C5048BF0CC05DF804EB5C
:1002B000890028BF40F8042B08BF704748BF20F8CA
:1002C000022B11F0804F18BF00F8012B70477047C8
:1002D0007047704710B500F009F8006810BD10B500
:1002E000044600F003F8046010BD000000487047A9
:1002F0009802002000487047980200207546FFF7DA
:10030000F9FFAE4605006946534620F007008546D2
:1003100018B020B5FFF784FFBDE820404FF000067D
:100320004FF000074FF000084FF0000B21F00701DD
:10033000AC46ACE8C009ACE8C009ACE8C009ACE820
:10034000C0098D46704710B50446AFF300802046C3
:10035000BDE81040FFF735BF704700000149182085
:10036000ABBEFEE726000200FEE7000038B50446FB
:100370000948406800900948006802F04FFF0546B0
:1003800020680099081A02F049FF294602F050FE41
:100390000099216038BD0000001000E03C00002002
:1003A00008490A6842F080720A60074900224A60E0
:1003B0000A6842F001020A6004494843044908609F
:1003C00070470000FCED00E0001000E040420F002C
:1003D0003C000020704700002DE9F041224C234DE5
:1003E000234E20694FF04048E0B1E06802F080FD04
:1003F0002A46334602F088FB02F0F2F801F022FDB3
:100400000546A06801F0ECFD414602F04FFF02F006
:10041000D1F8294602F04AFF2169C1F101012161A9
:10042000BDE8F081FFF7D4FE02F043FB6FF01E073A
:100430003A4603F0A2F902F0D3F8A060FFF7C8FE35
:1004400002F037FB3A4603F098F902F0C9F8E06091
:1004500002F04EFD2A46334602F056FB02F0C0F889
:1004600001F0E4FFCCE700004800002044174154AD
:10047000FB211940C06A7047406A7047806A704724
:1004800010B590F821100022022905D004218163C3
:1004900080F82020012010BD01680B6823F00E03B6
:1004A0000B6001680B6823F001030B6090F840308B
:1004B000C46B012101FA03F3636080F8211080F816
:1004C0002020104610BD00002DE9F05F90F82110AB
:1004D0000024022903D004218163012485E00168FE
:1004E0000A6822F00E020A6001680A6822F001021E
:1004F0000A603F4E3E4FB215DFF8F4C0DFF8F090CF
:10050000DFF8ECA0DFF8E8B0DFF8E4E00168783F5E
:1005100013011502ACF1640CA9F15009AAF13C0ACF
:10052000ABF1280BAEF1140E4FF48018B14227D96D
:10053000B9420ED0614512D049451DD0514518D061
:10054000594518D0714501D1424615E0294EB142B6
:1005500001D1012210E0274E1436B14201D1102200
:100560000AE0244E2836B14206D0224A3C3291425B
:1005700001D11A4600E02A461E49091F0A602BE0F5
:10058000B94213D0614517D0494522D051451DD0FD
:1005900059451DD0714501D142461AE0B14202D100
:1005A0004FF0807215E0134EB14201D1012210E0EC
:1005B000104E1436B14201D110220AE00D4E2836F9
:1005C000B14206D00B4A3C32914201D11A4600E0BA
:1005D0002A46074980394A60012180F8211000210C
:1005E00080F82010416B01B188472046BDE8F09F9C
:1005F000800002400804024070B5044600F00AF989
:100600000546601C02D004480078044400F002F95A
:10061000401BA042FAD370BD2C0000202DE9F84FFA
:10062000DFF8C8910024A9F1040B23460F2709F134
:10063000040AABF1040ED1E00125A54006EA05024B
:10064000AA4276D1DFF8A8C14E68A6EB0C08664531
:100650002BD00DDC032E34D005DC36B3012E19D09F
:10066000022E2FD11BE0112E16D0122E2AD119E006
:10067000B8F5881F19D006DCB8F5803F15D0B8F55D
:10068000801F1FD111E0B8F5001F0ED0B8F5041F70
:1006900018D10AE0CB6815E0CB681B1D12E0CB68CF
:1006A00008330FE0CB680C330CE08B682BB1012BC7
:1006B0004FF0080303D0456104E0042302E0056124
:1006C00000E00023FF2A01D8064601E000F10406FD
:1006D0004FEA840501D9A5F12005D6F8008007FA74
:1006E00005FC28EA0C0803FA05F548EA0508C6F8EF
:1006F00000804D68ED0070D53E4DAE6946F00106B4
:10070000AE61AD6924F0030605F0010500953A4D90
:1007100006EB050CDCF80850A607360F07FA06F8BA
:1007200025EA0805DFF8D480404503D14FF00008E2
:1007300025E052E0DFF8C880404502D14FF00108C3
:100740001DE0DFF8C080404502D14FF0020816E0FE
:10075000DFF8B480404502D14FF003080FE0DFF826
:10076000AC80404502D14FF0040808E0DFF8A080DB
:10077000404502D14FF0050801E04FF0060808FAA5
:1007800006F848EA0508CCF808804D68D9F80060FA
:10079000ED024D4601D5164300E096432E604D68AC
:1007A000DAF80060AD02554601D5164300E09643E5
:1007B0002E604D68DBF80060AD035D4601D5164341
:1007C00000E096432E604D68DEF80060ED0375464C
:1007D00001D5164300E096432E60641C0A68164655
:1007E000E2407FF429AFBDE8F88F00000804014023
:1007F00000001110001002400000014000080140FC
:10080000000C01400010014000140140001801409C
:10081000001C014001488068704700002C00002047
:100820000248816802781144816070472C000020E2
:10083000074810B5016841F010010160032000F085
:1008400075F80F2000F006F800F024F8002010BD25
:100850000020024070B50D4D04464FF47A7128789F
:10086000B1FBF0F00A490968B1FBF0F000F0DCFAE6
:1008700048B9102C07D200222146501E00F036F84D
:1008800000206C6070BD012070BD00002C000020B5
:10089000380000200C4808B5816941F001018161F0
:1008A000816901F001010091C16941F08051C1618C
:1008B000C06900F0805000900448416821F0E06178
:1008C00041F00071416008BD00100240000001408D
:1008D000002809DB00F01F0201219140400980003F
:1008E00000F1E020C0F8001170470000F0B40E4B9A
:1008F0001B680C46C3F30223C3F10705042D00D97E
:100900000425191D072901D2002300E0DB1E012662
:1009100006FA05F1491E214099409E40761E164078
:100920003143F0BC00F098BE0CED00E0064900F049
:10093000070208684FF6FF03184040EA0220034A06
:1009400010430860704700000CED00E00000FA055D
:100950002DE9F0470F46050061D0434E306800F0A6
:100960000700B84209D2306820F0070038433060F1
:10097000306800F00700B84251D128683B4C81072D
:1009800012D5400703D5606840F4E06060602878C5
:10099000000703D5606840F4605060606068A96833
:1009A00020F0F000084360602878C00728D068680D
:1009B000012810D02168022810D0890700292EDADA
:1009C000616821F0030101436160FFF723FF804666
:1009D00041F288390DE021688903EFE78901EDE7ED
:1009E000FFF718FFA0EB0801494502D90320BDE835
:1009F000F0876068696800F00C00B0EB810FEFD100
:100A0000306800F00700B8420BD9306820F00700CA
:100A100038433060306800F00700B84201D0012050
:100A2000E5E72878400705D56068E96820F4E060CC
:100A3000084360602878000706D56068296920F4BB
:100A4000605040EAC100606000F038F86168084A10
:100A5000C1F30311515CC8400649086006480068AC
:100A6000FFF7F8FE0020C2E700200240001002401D
:100A70006438000838000020300000200448054990
:100A800000684968044AC1F30221515CC8407047BC
:100A9000380000200010024074380008044805495E
:100AA00000684968044AC1F3C221515CC8407047DC
:100AB0003800002000100240743800080E4A5168C7
:100AC0000E4801F00C03042B11D0082B0FD10C4859
:100AD000C1F38343C903C05C0AD55168084AC1F316
:100AE0004041921E515C054A5043B0FBF1F0704703
:100AF00004494843704700000010024000127A0089
:100B00005438000800093D002DE9F84F040070D06A
:100B10002078C04DC00749D06868C0F38100012823
:100B200007D06868C0F38100022809D16868C00353
:100B300006D52868800339D560680028E7D035E0FD
:100B40006068B0F5803F0BD010B1B0F5A02F11D088
:100B5000286820F480302860286820F4802002E093
:100B6000286840F480302860606890B1FFF752FE3A
:100B700006460AE0286840F480202860F0E700BFBD
:100B8000FFF748FE801B642873D828688003F7D5D8
:100B90000CE0FFF73FFE064605E000BFFFF73AFE18
:100BA000801B6428F0D828688003F7D420789A4EF8
:100BB00080074FF001094FF0000839D5686810F040
:100BC0000C0F07D06868C0F38100022809D168685B
:100BD000C00306D42868800714D52069012808D1ED
:100BE00010E02069B0B1C6F80090FFF713FE074689
:100BF00005E00AE1FFF70EFEC01B0228C4D82868F2
:100C00008007F7D52868616920F0F80040EAC10044
:100C100028600DE0C6F80080FFF7FCFD074604E001
:100C2000FFF7F8FDC01B022823D828688007F7D4F7
:100C3000207800072CD57948A169D9B1C0F8009077
:100C4000FFF7E8FD074604E0FFF7E4FDC01B0228BC
:100C50000FD8686A8007F7D571484FF4FA510068D9
:100C6000B0FBF1F0009000BF0098411E0091FAD255
:100C70000EE080E0C0F80080FFF7CCFD074604E0FE
:100C8000FFF7C8FDC01B022875D8686A8007F7D433
:100C90002078400760D5E8690027C00008D4E869DB
:100CA00040F08050E861E869012700F08050009032
:100CB0005C480168C90513D40168834641F480711A
:100CC0000160FFF7A7FD824606E000BFFFF7A2FD27
:100CD000A0EB0A0064284ED8DBF80000C005F5D56B
:100CE000E06801280AD008B1052813D0286A20F04E
:100CF00001002862286A20F0040002E0286A40F01F
:100D000001002862E06841F2883B98B1FFF782FD5C
:100D100082460BE0286A40F004002862EEE700BF3C
:100D2000FFF778FDA0EB0A0159455AD8286A8007D9
:100D3000F6D50CE0FFF76EFD824605E0FFF76AFD91
:100D4000A0EB0A0159454CD8286A8007F6D41FB198
:100D5000E86920F08050E861E06988B36968C1F310
:100D60008101022944D00228C6F8608004D0FFF730
:100D700051FD044638E034E0FFF74CFD074604E03F
:100D8000FFF748FDC01B02282BD828688001F7D444
:100D9000206AB0F5803F05D16868A16820F4003072
:100DA00008436860D4E908010843696821F47411B4
:100DB00008436860C6F86090FFF72CFD044606E023
:100DC00025E000BFFFF726FD001B022809D8286890
:100DD0008001F7D51BE000BFFFF71CFD001B0228B8
:100DE00002D90320BDE8F88F28688001F4D40EE012
:100DF0000128F7D06868226A00F48031914204D15A
:100E0000616A00F47010884201D00120EAE70020F6
:100E1000E8E7000000100240000042428004424225
:100E2000380000200070004010B5401EB0F1807FF7
:100E300001D3012010BD4FF0E02460610F21601745
:100E400000F00AFC0020A06107202061002010BDF6
:100E500070477047F8B5016804460868CA684B696E
:100E600010F00F0F4FF0000559D003F0010602F407
:100E70009077374365D0C10705D0D10503D5616CA4
:100E800041F001016164410705D5D90703D0616CC8
:100E900041F002016164810705D5D90703D0616C77
:100EA00041F004016164010707D502F020013143DC
:100EB00003D0616C41F008016164616C00293AD093
:100EC000800604D5900602D5204600F0D9FA2068A5
:100ED0004069616CC0F38010090700D460B32046FC
:100EE00000F0A7FA20684069400621D52068143038
:100EF00050E8001F21F0400140E80012002AF5D11F
:100F0000E06BA8B16D494163E06BFFF7DDFA0028A3
:100F100011D0E06B416B01B0BDE8F040084783069B
:100F20000FD593060DD52046BDE8F84000F0A8BACD
:100F30002046FFF78EFFF8BD2046FFF78AFF656465
:100F4000F8BD266B2023012E7CD1C6067AD5D606A5
:100F500078D508684868009048694FF00206400656
:100F600040D5E16B086840680004000CE8D0A28D11
:100F70008242E5D9E085886920282DD020680C3090
:100F800050E8001F21F4807140E80012002AF5D1DA
:100F90002068143050E8001F21F0010140E80012E1
:100FA000002AF5D12068143050E8001F21F04001DC
:100FB00040E80012002AF5D184F842302563206809
:100FC0000C3050E8001F21F0100140E80012002A08
:100FD000F5D1E06BFFF754FA6663A08DE18D401AFE
:100FE00081B22AE0A08DE18D401A81B2E08D002807
:100FF000A6D00029A4D022680C3252E8000F20F4B9
:10100000907042E80007002FF5D12068143050E8B6
:10101000002F22F0010240E80027002FF5D184F8CC
:101020004230256320680C3050E8002F22F0100277
:1010300040E80023002BF5D166632046FFF708FF48
:10104000F8BDFFE705062BD5150629D594F8410014
:101050002128F5D1A068B0F5805F01D12069B0B139
:10106000206A411C2162216800784860E08C401EA3
:101070000004000CE084E3D12068C16821F0800105
:10108000C1602068C16841F04001C160D8E7206AB2
:101090000088C0F308004860206A801C2062E5E7F1
:1010A0004006CDD55006CBD5CA68204622F0400276
:1010B000CA6084F8413000F076F8C1E723140008D4
:1010C00070B5040004D094F84100002510B106E08A
:1010D000012070BD84F84050204600F023F8242001
:1010E00084F841002068C16821F40051C1602046A5
:1010F00000F028FA2068016921F49041016120681C
:10110000416921F02A0141612068C16841F4005120
:10111000C1606564202084F8410084F84200656362
:10112000002070BD30B585B0002400940194029475
:1011300003940068184988422CD11848816941F409
:1011400080418161816901F480410491816941F0AC
:10115000040181618069124D00F0040004904FF495
:1011600000700090022001900320039069462846F9
:10117000FFF754FA2815CDE9000469462846029481
:10118000FFF74CFA002211462520FFF7AFFB252080
:10119000FFF79EFB05B030BD003801400010024053
:1011A0000008014070477047FEE7FEE70C494163C5
:1011B0000C4981630C49C1630C4901640C494164C9
:1011C0000C4981644FF07C51C1640B4901630021DB
:1011D00041608160C1608161C1610162704700004E
:1011E0001283403D8FC2F53C2DB23D3FFE65373F37
:1011F0006666E63F2766BD3B0000C0412DE9F0472B
:10120000056B0E46044685F0004791463946304648
:1012100002F018F801D23D4605E02946304602F0BA
:1012200011F900D335466768606C394602F03EF824
:10123000A66880463146206C02F038F8294602F054
:1012400063F9414602F0F2F9A16C01F0F1FE206170
:10125000A16901F079FE494602F028F84FF0FF3508
:10126000294602F0B8FA394601F06EFE0146606088
:101270004C4A26F0004090420ADAE06B02F016F881
:1012800020F00040E16C01F0DDFF01D200201AE007
:10129000A66816F1FF4F02D24FF07E5000E04248A0
:1012A000E16C02F003F807463146A06B01F0FEFF47
:1012B00006466168E06B01F0F9FF314602F0B6F9CD
:1012C000394602F0B3F96061616B01F0B1FE606113
:1012D0000646E16901F038FE494601F0E7FF2F4676
:1012E000294602F078FAA16801F02EFEA0600546BA
:1012F000216A01F029FE494601F0D8FF394602F083
:101300006AFAE16801F020FEE06020692562C4E924
:101310000606FFF761F8254901F0C8FF616801F092
:1013200013FE234E314601F083FE0D2102F053FAE5
:1013300000F046FE01F05AFF6FF00C05294602F05E
:101340004AFA314601F0B2FF1A4E60623146E06857
:1013500001F06EFE0D2102F03EFA00F031FE01F0C8
:1013600045FF294602F037FA314601F09FFFE16A56
:1013700002F05CF9494601F05BFEA0623146E0688C
:1013800001F056FE0D2102F026FA00F019FE01F0E0
:101390002DFF294602F01FFA314601F087FFE06277
:1013A000BDE8F0876F12033B000080BF9A99993E19
:1013B00056555541DA0FC940FEE770477047FFF7B1
:1013C0002FBA30B58FB028216846FEF759FF142197
:1013D0000AA8FEF755FF01210804CDE900100024FA
:1013E000029402250491CDE907504FF4E0100990D2
:1013F0006846FFF789FB08B172B6FEE70F20CDE91A
:101400000A054FF48060CDE90C4002210AA80E9431
:10141000FFF79EFA002801D072B6FEE70FB030BD8C
:10142000704710B5406A0021C185C184FFF711FDE6
:1014300010BD01680C3151E8002F22F4907241E890
:101440000023002BF5D10168143151E8002F22F060
:10145000010241E80023002BF5D1016B012909D1DC
:1014600001680C3151E8002F22F0100241E80023FE
:10147000002BF5D1202180F8421000210163704734
:1014800008B590F84210222901D0022008BD8268D8
:101490004FF480539A4201D1016921B1816A9A4285
:1014A0001BD04AB10AE00268816A5268C2F308029E
:1014B0000A80816A891C08E0026972B10268526878
:1014C00002F07F020A70816A491C8162C18D491E47
:1014D0000904090CC18503D01BE002685268F1E7DA
:1014E0000168CA6822F02002CA600168CA6822F452
:1014F0008072CA6001684A6922F001024A612021B3
:1015000080F8421000214163026B012A03D0FFF7EB
:1015100049FE002008BD016301680C3151E8002F2D
:1015200022F0100241E80023002BF5D101680A687F
:10153000D20602D50A6849680091818DFFF788FCC0
:10154000E7E7000070B5044600680169E26821F42D
:101550004051114301612169A06808436169084352
:101560002168CA6841F20C639A430243CA6020684A
:101570004169A26921F44071114341611E4920680B
:10158000884202D1FFF78AFA01E0FFF777FA00EB11
:10159000C00101EB0012606864218000B2FBF0F32F
:1015A000B3FBF1F36FF018067343B2FBF0F5B2FB37
:1015B000F0F605EB8305322303EB0515B5FBF1F5DA
:1015C000B6FBF1F605F0F00505EB0615B2FBF0F6FB
:1015D000B2FBF0F0B0FBF1F06FF01802504306EBF5
:1015E000800003EB0010B0FBF1F0216800F00F0069
:1015F0002844886070BD0000003801400148FFF7B2
:1016000029BC00005C000020FEE7490050EAC12030
:1016100018BF04204A0D18BF40F0010040F2FF72CD
:10162000B2EB515F08BF40F00200012808BF05205F
:1016300070474100080218BF04200A0E18BF40F08E
:1016400001004FF07F4232EA010108BF40F0020082
:10165000012808BF052070470907090E002804DB90
:1016600000F1E02080F80014704700F00F0000F156
:10167000E02080F8141D70472DE9F74F144694B010
:101680000021C4E902111599079121F00045C949CB
:101690008D4206DC1599C4E9000117B00020BDE8B1
:1016A000F08FC549DFF814A3A9423CDD0799C44E69
:1016B0000029C44FC44A1599534619DD01F02EFB89
:1016C000554506D0C14AC24B01F028FBC4E90001D0
:1016D0000AE04FF0D352BE4B01F020FB32463B46AE
:1016E00001F01CFBC4E9000117B00120BDE8F08F38
:1016F00000F0A8FF554506D0B44AB54B00F0A2FF54
:10170000C4E900010AE04FF0D352B14B00F09AFF58
:1017100032463B4600F096FFC4E9000117B04FF097
:10172000FF30BDE8F08FAB49A942159978DB21F075
:10173000004183468846A84AA84B01F0E5F90022FB
:10174000A74B00F07FFF01F085F9099001F0B1F996
:1017500006460F469C4A534601F0D6F943465A4680
:1017600001F0D0FA80468A46984A994B304639466D
:1017700001F0CAF92A0D01250B924246534601F0A9
:10178000C1FA032DC4E9000139D00B98C1F30A5105
:10179000401A05EB45111139814230DA9148C346B0
:1017A000784400EB0510CDF80CA00C90D0E9002394
:1017B0003046394601F0A8F902460B4604910690DE
:1017C0005846039901F0AAFA80468A4602460B461B
:1017D0005846039901F0A2FA049B069A01F09EFA7A
:1017E00083460C9803913946D0E90223304601F034
:1017F0008BF95A46039B01F091FA6D1CBDE70798DF
:101800000028A2BF099817B0BDE8F08F616881F089
:1018100000416160099817B04042BDE8F08FFFE7D2
:1018200084461598C1F31301C0F30A50A0F2F530B5
:101830004FEA601800F01F06C6F120001390002048
:101840000690079041F4801E05206D4676B1664AE9
:1018500008EB00017A4452F8213002EB8101B340D9
:101860004A68139922FA01F1194305E05F4908EB30
:101870000002794451F82210A1FB0E27A1FB0C13A2
:101880001A449A4234BF0123002303EB070A05EBF5
:101890008003D3E901B70F448F4234BF01210021F7
:1018A00093448B4411B1934502D903E0934501D28F
:1018B000012100E00021C3E901B7514445F820109F
:1018C000011EA0F10100C1DC0298059F00F100504B
:1018D000800F12900298DDE90356800001F0E9F8CC
:1018E000834628460D9101F0FBF86FF01D0201F0D0
:1018F00044FFCDE90E01304601F0F2F86FF03D02F1
:1019000001F03BFF80468A46384601F0E9F86FF067
:101910005D0201F032FF074642465346119100F046
:1019200091FEDDE90E2300F08DFE5A460D9B00F07E
:1019300089FE00250E465A4628460D9B01F0EEF919
:10194000DDE90E2301F0EAF94246534601F0E6F9DB
:101950003A46119B01F0D6F9DFF898A0244A534685
:1019600001F0D2F807468846234A244B31462846E0
:1019700001F0CAF83A46434600F064FE074688463E
:101980004FF0A84253463146284601F0BDF83A468A
:10199000434600F057FE159A12F0004F04D0129AF9
:1019A00081F0004152421292C4E90001129817B02E
:1019B000BDE8F08FFB21E93F7CD90240FB21F93FD4
:1019C0007370032E8A19A33B000040543163621ADE
:1019D00061B4D03DFB21394183C8C96D305FE43F1C
:1019E0000000E03F4C210000C8200000AA200000B9
:1019F000182D4454FB21F93D3326A611460B113C0A
:101A00002DE9FF4D21F0004807460C46B8F1795FFB
:101A100008DA01F01FF8002801BF0020324904B0A5
:101A2000BDE8F08D3A4623461046194601F06CF8A1
:101A3000054602462D480E460B460621784400F026
:101A40005DF82A46334601F05FF8DDE9022382465D
:101A50008B463846214601F057F804460F46524659
:101A60005B462846314601F04FF822463B4601F0DE
:101A700055F907468A464FF0FF322846314601F0B5
:101A80007CFE1B4A90450ADA3A46534601F046F975
:101A900004B00022BDE8F04D134B01F033B9154AF4
:101AA0004245A8BFA8F500154FF00004B8BF124D7D
:101AB00022462B4601F032F90646884622462B463E
:101AC0000020094901F02AF904460D463A465346DA
:101AD0003046414601F022F904B022462B46BDE8CB
:101AE000F04D01F00FB900000000F03F801E000033
:101AF0003333D33F0000E93F0000D23F2DE9F041EE
:101B00004F1E00EBC7010446D1E9000115461E46F1
:101B100037F006020DD02A46334600F0F5FF7F1E4F
:101B200004EBC703D3E9002300F08CFD37F0060275
:101B3000F1D1022F25D0042F13D0062F18BFBDE8F6
:101B4000F0812A46334600F0DFFFD4E90A2300F093
:101B500079FD2A46334600F0D7FFD4E9082300F088
:101B600071FD2A46334600F0CFFFD4E9062300F08A
:101B700069FD2A46334600F0C7FFD4E9042300F08C
:101B800061FD2A46334600F0BFFFD4E9022300F08E
:101B900059FD2A46334600F0B7FFD4E90023BDE8DB
:101BA000F04100F04FBD00002DE9FF4D054621F04A
:101BB000004084B00C46B0F1795F0BDA2846FFF79D
:101BC00024FD042808BF00F06FF8284608B021461D
:101BD000BDE8F08D2A460B46104600F095FF0646FC
:101BE0000F462A46234600F08FFF804626488A4645
:101BF00032463B4605217844FFF780FF8346109824
:101C0000029160B3214A224B4046514600F07CFFCE
:101C1000CDE900015A4640465146029B00F074FF50
:101C200082468846DDE906014FF0FF3201F0A5FD4E
:101C30005246434601F072F832463B4600F064FFDC
:101C4000DDE9062301F06AF8DDE9002301F066F81A
:101C500008B02A462346BDE8F04D01F053B80B46C4
:101C60005A463046394600F04FFF084A084B00F00C
:101C7000E9FC4246534600F047FF08B02A46234697
:101C8000BDE8F04D00F0DEBCDE1D000049555555A5
:101C90005555C5BF012201F070BD00221346104604
:101CA000114600F07FBD0000024A0020110701F03C
:101CB00064BD000001FDFFFF00214FF07E5001F0E8
:101CC000B7B9012101F087BD0021084601F0B0B984
:101CD0006FF05E01080701F07EBD00002DE9F04DB8
:101CE0000D4614464FF07F41B1EB440F9EBF4FF0BD
:101CF000FF312960BDE8F08D4FF0004040EA04213B
:101D0000C4F3C750783810F01F024A4B4FEA601CEA
:101D1000C2F120067B44C4F3C750A0F178004FEA1B
:101D2000601003EB800053F82C3008BFD0E901C6E7
:101D300012D0D0F804C093402CFA06F73B438768D2
:101D40000CFA02FC27FA06F8C06807FA02F2F04023
:101D50004CEA080C42EA0006A3FB0132ACFB01C0CE
:101D6000A6FB016101EB0C068E4234BF4FF0010C63
:101D70004FF0000CC1186144BCF1000F02D0814249
:101D800002D903E0814201D2012000E0002010448A
:101D900000F120024FEA92188006CA0C40EA423055
:101DA0004F03C5F8008001F021FA8246384601F061
:101DB00035FA6FF0120101F00EFD0746304601F0D2
:101DC0002DFA6FF0250101F006FD83463946504695
:101DD00001F0BAF8594601F0B7F800F500666FF364
:101DE0000B065146304601F021FC394601F01EFC3D
:101DF000594601F089FB104901F058FA07460F498E
:101E0000304601F053FA394601F09EF807460C4976
:101E1000304601F04BFA394601F096F814F0004FC5
:101E200008BFBDE8F08DC8F1805180F00040296006
:101E3000BDE8F08DA01C0000DB0FC92F22AAFD29F0
:101E40000000C92F2DE9F843044602464F48694671
:101E5000B0EB420F09D94FF0E640B0EB420F94BF10
:101E600000204FF0FF30009030E0494B22F000405E
:101E7000834271D94749204601F018FA01F014FB5A
:101E8000804601F097F900F0030000904249404677
:101E900001F00CFA05464149404601F007FA0646B2
:101EA0003F49404601F002FA07463E49404601F0EC
:101EB000FDF9214601F028FB394601F0B7FB314618
:101EC00001F0B4FB294601F0B1FB04462546009C15
:101ED000002C45DB294614F0010F08461CD001F008
:101EE000E5F90646304901F0E1F9304901F00CFB13
:101EF000314601F0DBF92E4901F026F8314601F0B8
:101F0000D5F9294601F0D2F9294601F01DF814F05F
:101F1000020F1CD0BDE8F88301F0C8F90546254939
:101F200001F0C4F9244901F00FF8294601F0BEF987
:101F3000224901F009F8294601F0B8F94FF07E5125
:101F400001F002F814F0020F08BFBDE8F88380F03A
:101F50000040BDE8F883FFE71046FFF7BFFEB4E797
:101F60006800B0F17F4F3CBF4FF07E50BDE8F88372
:101F700007D14FF00100FEF7B2F9BDE8F843FFF7D3
:101F8000A3BE2846BDE8F843FFF79BBEB61F927E6E
:101F9000490E494683F9223F1A61342C0020A233AE
:101FA00000A0FD390000C93F336D4C39DA82083C8E
:101FB000A0AA2ABEB93AB2BACA9F2A3DDDFFFFBE27
:101FC00070B5054601F0F6F8044601F00FF9294610
:101FD00001F09AFAB0F17C5F00DD641C204670BD10
:101FE0002DE9F0410026A0F50001B1F1FE4F7DD2B0
:101FF00000F500226FF07E0101EBE251C2F30254C2
:1020000077184FF07E52A0EBC15602EB045557EA09
:10201000040047D02946304600F096FF8046294606
:10202000304601F003FB414601F002F80546014647
:1020300001F03CF98046454901F038F9444900F087
:1020400083FF06464146284601F030F9314601F04B
:102050002DF90646384601F0C9F807463D4901F01A
:1020600025F93D49794451F8241000F06DFF3146BF
:1020700000F06AFF06460121284601F0ACFB31461C
:1020800000F062FF05463846344901F00FF9344943
:10209000794451F8241000F057FF2946BDE8F0417B
:1020A00000F052BF4FF07E51304601F0BFFA0546B6
:1020B0002C4901F0FBF82C4900F046FF294601F0BD
:1020C000F5F82A4900F040FF294601F0EFF86FF0DB
:1020D000824100F039FF04462946084601F0E6F83F
:1020E000214601F0E3F80146284600E003E0BDE8A0
:1020F000F04100F029BF4FF07F42B2EB400F03D216
:10210000BDE8F041FFF7DDBDB0F1FF4F08BFBDE80E
:10211000F081B0F1004F06D90120FEF7E0F8BDE8EC
:10212000F041FFF7D1BD30F0004105D06FF0160649
:10213000172101F050FB5BE70220FEF7D0F8FFF714
:10214000BBFD80F00040BDE8F081000066F1CC3EB0
:10215000AAAA2A3FF4FD0538341800000070313F68
:10216000E817000021ED423E0A1180BEC1ABAA3E35
:1021700008B5FEF75DFBFFF724F95448816941F08B
:1021800020018161816901F020010091816941F0A4
:102190000401816180694E4900F0040000904D48BF
:1021A000002501604FF4E131C0E901150C21C56043
:1021B000C0E904518561C561FEF782FF08B172B6BE
:1021C000FEE74820FEF7ECF842484830FEF7EEFF05
:1021D00040489830FEF7EAFF3E48E830FEF7E6FF59
:1021E0003E4C3F4FDFF8FC803B4E23463A4641468B
:1021F0003D48009600F0C4F83B4823463A46414625
:102200001030009600F0BCF8384CDFF8E480DFF8BE
:10221000E4902562DFF8E0B035464FF07E5A33484F
:10222000FEF7A4F801466060A06800F08DFEA06093
:1022300028484830FEF720F9E06026484830FEF78D
:102240001DF9206123484830FEF714F96061606889
:1022500000F04EFE42464B4600F056FC00F0C0F93E
:102260000746A0623946504601F0E0F9616A01F084
:102270001DF806463946206901F018F8314600F08D
:1022800063FE01466062206A01F0D0F90146E06118
:10229000154800F033F80146A0610E4862684830E6
:1022A000FEF7ACFF2946A06801F000F800F020FE20
:1022B00000F06CF800225B4600F026FC00F090F97C
:1022C00020620120FEF798F9A9E700000010024003
:1022D000003801405C000020000020416666A63FF7
:1022E00000005041000070429401002000000020D6
:1022F0007F6ABC7493D83240000024402DE9F0413D
:102300001E4C884605461C4E4046616801F08EF919
:1023100007464046316800F0C9FF216800F014FE0E
:102320002060E96801F08EF8E86808D380F000408A
:10233000216801F087F803D2E86880F0004020604F
:102340003946A86800F0B2FF316800F071FE064619
:102350006868216800F0AAFF07464146286800F037
:10236000A5FF394600F0F0FD314600F0EDFDC4F860
:102370000480BDE8F081000004000020400000203F
:1023800010B5029C80E81E00002010BD00B5254B52
:1023900021F0004287B09A4203DC002213460092EB
:1023A0002BE0214B9A4208D140B94FF00100FDF7D4
:1023B00096FFFFF772FC07B000BD03DBFFF76AFC76
:1023C00007B000BD02AAFFF757F910F003014FF064
:1023D00001000DD0012914D002291AD00DF1080CEA
:1023E0009CE80F00FFF70CFB07B081F0004100BD37
:1023F0000DF1080C00909CE80F00FFF7D5FB07B02B
:1024000000BD0DF1080C9CE80F00FFF7F9FA07B0CA
:1024100000BD0DF1080C00909CE80F00FFF7C4FB15
:10242000E2E70000FB21E93F0000F07F2DE9F843DF
:102430000446024652486946B0EB420F09D94FF0B4
:10244000E640B0EB420F94BF00204FF0FF30009009
:1024500030E04C4B22F00040834271D94A4920467B
:1024600000F024FF01F020F8804600F0A3FE00F009
:10247000030000904549404600F018FF05464449D6
:10248000404600F013FF06464249404600F00EFF6A
:1024900007464149404600F009FF214601F034F863
:1024A000394601F0C3F8314601F0C0F8294601F081
:1024B000BDF804462546009C002C45DB294614F057
:1024C000010F08461ED000F0F1FE0546334900F02A
:1024D000EDFE334900F038FD294600F0E7FE3149B2
:1024E00000F032FD294600F0E1FE4FF07E5100F091
:1024F0002BFD14F0020F08BFBDE8F88380F0004008
:10250000BDE8F88300F0D2FE0646274900F0CEFE73
:10251000264900F0F9FF314600F0C8FE244900F0DA
:1025200013FD314600F0C2FE294600F0BFFE2946E9
:1025300000F00AFD14F0020FE0D1BDE8F883FFE7D8
:102540001046FFF7CBFBB4E76800B0F17F4F09D22C
:102550002846FFF76EF8042808BFFFF7B9FB2846A6
:10256000BDE8F88306D10120FDF7B9FEBDE8F843C8
:10257000FFF7AABB2846BDE8F843FFF7A2BB00005F
:10258000B61F927E490E494683F9223F1A61342CC8
:102590000020A23300A0FD390000C93FB93AB2BA09
:1025A000CA9F2A3DDDFFFFBE336D4C39DA82083CFD
:1025B000A0AA2ABE70B5054600F0B0FF044620F080
:1025C0000040C0F1FF40C00F08D025F00040C0F12E
:1025D000FF40C00F04BF0120FDF781FE204670BD03
:1025E00021F00042A2F16052B2F5801F01F00043D9
:1025F00028BFD2F17F6C0BD95FEA001C43EAC2020C
:1026000042EB507018BF704728BF20F001007047A0
:10261000B2F5801FBCBF184670474FEA410C1CF54D
:10262000001F02D2084600F008BF70B500F016FB8C
:1026300000000089FFF7F6BF4FF00040A0F58000D2
:102640007047000010B591EA030F48BF83F00043C4
:1026500000F16C83841A71EB030C05D2121943EB61
:102660000C03001B61EB0C01DFF824E14FEA11546D
:10267000A4EB135C1EEA430F18BF9EEA445F73D0BD
:1026800023EA0E03DCF1200E21EA045143F4801307
:1026900032D322FA0CFE10EB0E0023FA0CFE41EBB3
:1026A0000E01CCF1200E03FA0EFE10EB0E0051F1DC
:1026B0000001B1F5801FCCF1200E32D201EB0451A4
:1026C00012FA0EF2BDE8104058BF7047401C38BFE8
:1026D0005FEA420218BF7047002814BF20F00100D3
:1026E00041F100014FEA410313F5001F38BF704765
:1026F000A1F1C04100F000BB012A43EB0302ACF1A1
:10270000200CDCF11F0E32BF4FF0000E23FA0CF349
:1027100010EB030041EB0451B4EB115FD0D0A1EBFF
:10272000045101F5801149085FEA300001EB0451C2
:102730000ED350F1000038BF12FA0EFE08D1BDE8EA
:102740001040C9E7401C38BF5FEA4202CAD1C3E764
:10275000BDE810404FEA410313F5001F38BF704732
:10276000A1F1C04100F0C8BA9EEA445F08D011EA66
:102770005E0FBDE8104004BF01F00041002070472B
:10278000BDE8104070B500F069FA00BF64FBBE3EC2
:102790000000E0FF02494FF0000000F0BCBF00BFA6
:1027A0000000F87F2DE9C04130B4DFF8A0C23CEA58
:1027B000111418BF3CEA131400F0EC8081EA030501
:1027C0001CEA111444EAD57418BF1CEA131500F072
:1027D000C780A4EB05044FF0004545EAC12145EA56
:1027E000C32341EA505143EA525304F17F749942A2
:1027F00004F500344FEAC0204FEAC22208BF9042DD
:1028000000F09C804FEA13650FF24016765D4FEAA8
:10281000134506FB05F7C7F1807706FB07F74FEA7C
:10282000D737A7FB03687642C8F58038A7FB06CEEA
:1028300038BFA8F1010807FB08E64FF0000EA6FB21
:10284000028CE6FB03CEDCF1000CCEF1004E38BF6B
:10285000AEF1010EA6FB0C584FF000074FF000053B
:10286000E6FB0E87A1FB08C6A0FB07CE16EB0E0603
:1028700045F10005E1FB076515F1E04E7EBFA4F5CB
:1028800080345FEA46066D4116F1800745F1000588
:102890004FEA17274FEA066647EA0567A6F1DE46C4
:1028A000B6F1805F4FEA15251FD9384624F0010C98
:1028B00005EBC471BCF1FE6F01EB0C1102D8F0BC4A
:1028C000BDE8008124425CBF01F5801E9EEAC47F02
:1028D00002D4F0BCBDE80081244238D4F0BCA1F1A0
:1028E000C041BDE8004100F007BA4FEAD22242EAF7
:1028F00043524FEAD323A7FB02864FEAD02040EA97
:10290000415007FB03661EEA0E0F4FEAD12105FB7B
:10291000026658BFA6EB0056B6EB00564FEA520EC1
:102920004EEAC37E18EB0E0E56EB530EBDD518EBD8
:1029300002085E417F1C55F10005B6E74FF4801593
:102940004FF000074FF000064FF00008ADE7F0BC75
:102950004FF0000001F1C04101F00041BDE80081ED
:1029600011EA0C1F0CEA131500D00CE013EA0C1F3F
:1029700000F025804FF00000F0BC81EA030101F077
:102980000041BDE80081F0BCBDE8004181EA0301DF
:1029900000F0B2B9F0BCBDE8004170B500F05EF9DE
:1029A000097EFC3E00F007B881EA03014FF0000009
:1029B00001F00041704781EA030100F09DB9F0BCCD
:1029C000BDE800414FF0000021497047FFFDFBF9D1
:1029D000F7F5F4F2F0EEEDEBE9E8E6E4E3E1E0DE52
:1029E000DDDBDAD8D7D5D4D3D1D0CFCDCCCBCAC8C4
:1029F000C7C6C5C4C2C1C0BFBEBDBCBBBAB9B8B7EB
:102A0000B6B5B4B3B2B1B0AFAEADACABAAA9A8A8DD
:102A1000A7A6A5A4A3A3A2A1A09F9F9E9D9C9C9BAB
:102A20009A99999897979695959493939291919056
:102A30008F8F8E8E8D8C8C8B8B8A898988888787E7
:102A40008685858484838382828181800000FF075C
:102A50000000F87F4FEA41034FEA5353A3F5806328
:102A6000D3F11E03C8BFD3F1210C0CDD4FF000429F
:102A700042EAC12242EA505232FA03FC8CEAE17C7B
:102A8000ACEBE1707047102BC4BF0020704703F51A
:102A9000787CBCF1FF3F04D06FF0004282EA210055
:102AA000704770B500F0DAF8499224800020704732
:102AB000F2E710F0004248BF4042B0FA80F310FA4B
:102AC00003F10AD0C3F11D0303F580634FEA4150BF
:102AD00002EB035202EBD12170474FF00000704728
:102AE000B0FA80F310FA03F10AD0C3F11D0303F525
:102AF00080634FEA41504FEA035202EBD121704705
:102B00004FF0000070470000DFF848C170B51CEAC4
:102B1000111E1EBF1CEA13159EEA0C0F95EA0C0F3E
:102B200000F06F8081EA030423EA4C134EEAD47E5E
:102B300021EA4C1141F4801143F48013AE44A1FB0F
:102B4000024CA0FB0365AEF17F7E361955EB0C05F8
:102B5000A1FB034C4CF10003A0FB021C16EB0C067E
:102B6000654153F10003094218BF46F0010613F412
:102B7000007F0BD14FEA03314FEA0530340341EABD
:102B8000155140EA16506FF003020AE04FEAC321E4
:102B90004FEAC520F40241EA555140EA56506FF021
:102BA000020202EB2E4201EB025585EACE710AD0F9
:102BB0005FEA440C18BF24F0004450F1000041F1DA
:102BC000000120EAD47040F2FE7C624500D270BD64
:102BD000A84214BF4FF080444FF04044002E08BF7D
:102BE0000024BEF1806FA8BFA1F1C041BDE87040D4
:102BF00080F282804FF0000001F1C04101F00041FD
:102C000070479EEA0C0F0CEA131518BF95EA0C0FDB
:102C100006D04FF0000081EA030E0EF0004170BDB7
:102C200000F01CF88900013E00F007B800F009B878
:102C30004FEA430C5FEA5C5C08D081EA030100F0D4
:102C40005BB84FEA410C5FEA5C5CF6D14FF00000E4
:102C5000014970470000FF070000F87F0EF1020EE7
:102C60002EF0030E5EF8046B364205D4012A43EBC6
:102C7000030515F5001F12D8012841EB010C1CF5C6
:102C8000001F0CD80ED14FEAD17C15F5001F0CEBBC
:102C90004C0C0CF1020C08BF4CEBD37C04E04FF061
:102CA000080C01E04FEAD37C0CEB4C0526FA05F644
:102CB00006F00706B6F1040C06D20EEB860CBDE852
:102CC00070404CF0010C6047DFE80CF0090B020289
:102CD0004FF000414FF00000A1F5002170BD1946F2
:102CE0001046012851EB010418BFD4F5001484BF2D
:102CF000002001F0004170BD0808A0F500114FEA66
:102D00003101704791EA030F10B581F000413FF5A2
:102D1000A1AC83F0004300F009B8000010B591EABF
:102D2000030F48BF83F000433FF594AC841A71EB66
:102D3000030C07D212198CF0004C43EB0C03001B60
:102D400061EB0C01DFF8A4E14FEA1154A4EB135C32
:102D50001EEA430F18BF9EEA445F00F0B08023EAEA
:102D60006E03524221EA0451C3EB6E0338BF5B1E6F
:102D7000DCF1200E25D322FA0CFE10EB0E0043FAF4
:102D80000CFE41EB0E01CCF1200E03FA0EFE10EB0F
:102D90000E0051F10001CCF1200E29D412FA0EF2EE
:102DA00001EB0451BDE8104058BF7047401C1CBFE8
:102DB000B2F1004F704700280CBF491C20F0010001
:102DC000704712EB020E43EB030218BF4FF0010EE7
:102DD0004EEA4202ACF1200CDCF11E0E54D943FA4B
:102DE0000CFE10EB0E0051F1FF31CCF11E0ED5D5CB
:102DF0000EF1010E12FA0EFE404141EB010101EB12
:102E0000445C5FEA5C5C10D910EBDE7001EB0451AE
:102E100038BFBEF1004FBDE8104018BF7047002812
:102E20000CBF491C20F00100704730D24FEAD42C6F
:102E300011F5001124F400641BD0B1FA81F20B3AB1
:102E4000A41AA41ED2F12003914030FA03F31943CF
:102E5000904001EBCC71002C01EB0451BDE8104017
:102E6000A8BF704701F1C0414FF0000001F00041E0
:102E70007047B0FA80F310FA03F100D110BDE41AE4
:102E8000173C4805C90AE4E701EB045110BD49109D
:102E900001EB0451BDE810404FEA300002E04FF072
:102EA000000170474A0008BF0042F8D0B2F5001F89
:102EB00028BF704701F000414FF0000070479EEAC4
:102EC000445F07D011EA5E0FBDE8104004BF002147
:102ED00000207047BDE8104070B5FFF7BFFE00BF8F
:102EE00040DFF63E83F00041104670470000E0FFEF
:102EF00043004FEAD30C4FEA3C0C43401FBF40074E
:102F00000CF1605113F0FE4F70471CF0006F03D1BD
:102F100000200CF0004170470CF0004343EA507071
:102F200010B540EACC0000F042FA00BF0000009269
:102F30004FEA0001FFF7E0BE4FF000414FF0000004
:102F4000A1F500217047000090EA010F48BF81F011
:102F5000004100F17283421A3CBF801A89184FEA7F
:102F6000D0524FF07F4C1CEA410FA2EBD15318BF57
:102F70009CEA026F00F03B804FF0004C4CEA0020CE
:102F80004CEA012121FA03FC10EB0C0C1ED202F1D9
:102F9000FF325FEA1C2040EBC25038BF70471CF084
:102FA0007F0F4FEA400C18BFBCF17F4F38BF70470E
:102FB000C3F12003994008BF20F00100BCF17F4F0E
:102FC00038BF7047A0F1C04000F037BA4FEA3C006C
:102FD000000A40EBC25028BF1CF0FF0F4FEA400C24
:102FE000E6D018BFBCF17F4F38BF7047EAE79CEAD4
:102FF000026F05D010EA5C0F08BF00F00040704778
:1030000010B500F0D4F900BF64FBBE3E014800F0EB
:1030100082BB00BF0000C07F401058BFC0F14040DD
:10302000491058BFC1F140418142EFF30080704721
:103030004FF47F0C1CEAD0121EBF1CEAD11392EA97
:103040000C0F93EA0C0F00F0858090EA010F48BF47
:1030500042F4807240F4000C41F400002CF07F41F7
:1030600020F07F4000B58142A2EB03020FF2081C62
:10307000ACEB504EC0F100009EF800E04FEA4E0E5F
:1030800000FB0EFC38BF49004FEA2C1C02F5FA0287
:103090000CFB0EF34FEACE1E4FEA112C4FEAC12172
:1030A0000EEB635E42EB22420EFB0CFC4FEA1C531C
:1030B00000FB03114FEA112C4FEA01310EFB0CFC0F
:1030C0004FEADC4C00FB0C11C14228BF09184CEB45
:1030D00003335DF804EB10EB410143EBC250B2F552
:1030E0007C0F38BF704729D512F0F00F1CBF00F1DC
:1030F000C04000F00040704700818283848586874D
:1031000088898B8C8D8E8F919293959697999A9CA6
:103110009D9FA0A2A3A5A7A8AAACAEB0B2B3B5B715
:10312000B9BCBEC0C2C5C7C9CCCED1D4D7D9DCDFEB
:10313000E2E6E9ECF0F3F7FAFE0000004FEA400C9B
:103140000CF1807CBCF17E4F28BF7047B0F1C040CD
:1031500000F073B990EA010F0CEAD11348BF42F4B2
:103160008072624538BF634507D213F47F0F16D0D3
:1031700080EA010000F00040704710B500F017F938
:10318000097EFC3E00F005B880EA010000F0004036
:10319000704780EA010000F0004000F04EB912F4E0
:1031A0007F0F04BF0248704780EA010000F045B974
:1031B0000000C07F41000B0ED3F19E0208D950F4ED
:1031C00000034FEA032323FA02F048BF404270474E
:1031D00010B500F0ECF800BF499224800020704741
:1031E0006FF0004282EA20007047000010F00041BA
:1031F00048BF4042B0FA80F310FA03F2C3F19D03D6
:103200000BD051EAC35101EB1220530638BF70476F
:1032100000F1010008BF20F001007047B0FA80F310
:1032200010FA03F2C3F19D030AD0D90501EB122075
:10323000530638BF704700F1010008BF20F00100BD
:103240007047000050EA010C00F113801CF5000FDC
:1032500058BFBCF5000F01D48842704707D710F55E
:10326000000F58BF11F5000F15D4884270478942EE
:1032700070471CF5000F04D5BCF5000FF7D581424F
:1032800070474FF0807C1CEB400F38BF1CEB410FA8
:1032900001D28142704710B500F089F892244900AC
:1032A0004FF000504FF08051FFF7B6BE4FF47F0C47
:1032B0001CEAD0121EBF1CEAD11392EA0C0F93EA4B
:1032C0000C0F00F0478090EA010F48BF42F4807273
:1032D0004FF0004C4CEA00204CEA012102EB0302C3
:1032E000A0FB0113A2F50002002918BF43F001035F
:1032F0005B0028BF4FEA330342EB22425FEA132C04
:103300004CEBC2502EBFBCEB436FB2F57C0F704745
:103310004FEA036CBCF1004F08BF20F00100B2F58A
:103320007C0F38BF70470BD582F0FF0212F5803F4B
:10333000C8BF704700F1C040D8BF00F000407047E0
:1033400000F5000C5FEA4C0C48BF7047B0F1C0407C
:1033500000F073B890EA010F0CEAD11348BF42F4B1
:103360008072624538BF634504D280EA010000F0F4
:103370000040704710B500F01AF800BF8900013E08
:1033800000F007B800F009B85FEA410C5FEA1C6C76
:1033900008D080EA010000F050B85FEA400C5FEA14
:1033A0001C6CF6D14FF00040A0F5800070470EF184
:1033B000020E2EF0030E5EF8044B244204D44FEAB2
:1033C0004102B2F17F4F11D84FEA4003B3F17F4F72
:1033D0000CD80ED14FEAD07CB2F17F4F0CEB4C0CE5
:1033E0000CF1020C08BF4CEBD17C04E04FF0080C50
:1033F00001E04FEAD17C0CEB4C0324FA03F404F017
:103400000704B4F1040C06D20EEB840CBDE81040A6
:103410004CF0010C6047DFE80CF0070802024FF0A7
:103420000040A0F5800010BD0846420018BFD2F150
:10343000807288BF00F0004010BDFF2141EAD050EB
:10344000C005704751EA000C00F113801CF5000F15
:1034500058BFBCF5000F01D48142704707D711F562
:10346000000F58BF10F5000F15D4814270478942F4
:1034700070471CF5000F04D5BCF5000FF7D5884246
:1034800070474FF0807C1CEB410F38BF1CEB400FA6
:1034900001D28842704780EA010081EA000180EA97
:1034A0000100FFF7F8BE00005FEA400C5FEA1C6C09
:1034B000BCF17F0314D4D3F1170240F31C804FF00A
:1034C000010C0CFA02FCACF101030340B3EB5C020B
:1034D00020EA030008BF10EA0C0F88BF6044704761
:1034E000B3F1FF3F28BF5FEA002C00F0004088BF27
:1034F00040F07E507047BCF1FF0FB8BF704710B569
:10350000FFF755FF40DBB6BE80F0004090EA010FA8
:103510007FF521AD81F0004100F08FB84FEAD05126
:10352000002988BFD1F1FF0240F2758001F17D01D1
:103530004FEA002070B5490840F0004038BF40080D
:103540000EA2430E040CD25C02FB02F304FB03F355
:10355000C3F14043A3FB0254ED0D45EA442202FBB4
:1035600002F3A0FB03546D42C4F1404438BF641E13
:10357000A2FB05350023E2FB0453EA0B42EA434277
:10358000A0FB023212F14004A2F12103E40903F08E
:103590007F031F2B32D904EBC15070BDFEFAF7F345
:1035A000F0ECE9E6E4E1DEDCD9D7D4D2D0CECCCA67
:1035B000C8C6C4C2C1BFBDBCBAB9B7B6B4B3B2B055
:1035C000AFAEACABAAA9A8A7A6A4A3A2A1A09F9E98
:1035D0009E9D9C9B9A999897979695949393929178
:1035E00090908F8E8E8D8C8C8B8A8A898988878724
:1035F00086868584848383828281818004FB04F6AD
:10360000B6EB004603D5E64248BF641CC3E7A642BA
:1036100058BF641CBFE711F0FF0F02D100F000405B
:10362000704710B5FFF7C3FE7FDBFFBE90EA010FC6
:1036300048BF81F000413FF58EAC421A04D882F0B9
:103640000042A0EB020011444FEAD0524FF07F4CF1
:103650001CEA410FA2EBD15318BF9CEA026F4AD07B
:103660004FF0004C4CEA00204CEA012121FA03FC07
:10367000B0EB0C0C0FD412F0FE0F36D05FEA4C000A
:103680001DD5001240EBC25038BF70471CF03F0FF1
:1036900018BF70470BE0A2F101025FEA1C2040EB6B
:1036A000C25038BF70471CF07F0F18BF7047C3F17E
:1036B0002003994014BF401E20F00100704780088D
:1036C0004FEA122308BF7047B0FA80FCA2EB0C024D
:1036D000CCF1280C60FA0CF093EA122F04BF00EB37
:1036E000C25070474FEAC3707047130A5FEADC109C
:1036F00008BF7047F6E79CEA026F04D010EA5C0F3F
:1037000008BF0020704710B5FFF751FE40DFF63EBE
:1037100081F0004070470CF00F03092B08BF082010
:1037200000F07F800A2B0BD0082B18BF704708BF12
:103730001CF0400F0AD04FF000004FF0000170471E
:103740001CF0400F18BF4FF0004070471CF0100FE6
:1037500008D020F0704300F07F4242EAD3014FEAE4
:103760004370704700F0604021F07F4242EA00025F
:1037700001F07F4040EA727070474FF0FF0C4CF44C
:10378000E06C1CEA11531CBF9CEA030C9445C2BFB9
:10379000DA4201EB02517047002B0DD0BCF1000F53
:1037A0000FD0002A01F00041A4BF41F0E04141F0F8
:1037B0007F614FF00000704701F000414FF00000C2
:1037C000704750EA01334FF09B0C18BF4CF0806CEF
:1037D0007EF4E0AF70474FF0FF0212EAD0521CBFF8
:1037E00092F0FF038B42C2BFD14200EBC150704741
:1037F000002A0AD0002B0BD0002900F00040A4BF03
:1038000040F0FE4040F40000704700F00040704778
:1038100043024FF00B0C18BF4CF0806C7FF4F6ABFA
:1038200070471CF4801F11D01CF4E02F03D06FEA06
:10383000CC31490070474FF04050EFF3008222F046
:10384000704242EA000282F3008870474FF00000A5
:103850007047010202030405060708090A0B0C0D54
:103860000E0F101000000000000000000102030411
:103870000607080900000000010203040000000020
:103880000030F13D0070643E0000A33E0090CF3E4A
:103890000090F83E00400F3F00E0203F0000000095
:1038A00015B78337CDE37B380EE1C53860F6913824
:1038B000AF5F0F38E1BC3E3823F447390000000009
:1038C0004C5555555555A53F7751C1166CC156BF3E
:1038D0009015CB19A001FA3EAD529C804F7E92BE4E
:1038E000C4B1B4BD9EEE213ED43888BEE9FAA8BD6D
:1038F00000004054FB21F93F3163621A61B4D03DAE
:103900000000601A61B4D03D7370032E8A19A33B86
:103910000000002E8A19A33BC14920259A837B39D8
:1039200000000000000000006E83F9A22915444E3B
:10393000D15727FCC0DD34F5999562DB4190433CBB
:10394000AB6351FE61C5BBDE3A6E24B7E0D24D4297
:10395000EA2E49061C92D1091CEB1DFE3EA729B197
:10396000F53582E88444BB2E26709CE9417E5FB425
:1039700039D69139F43953838B5F849C3B28F9BD48
:10398000FF97F81F0F9805DE8B112FEF1F6D0A5A56
:10399000CF7E366DB709CB27663F464F2DEA5F9E37
:1039A000C7BA27757BF1E5EBF739073DEA92528AF2
:1039B000B15FFB6B085D8D1F000000006E83F9A2F4
:1039C0002915444ED15727FCC0DD34F5999562DBAB
:1039D0004190433CAB6351FEA6F810111111813F99
:1039E000D561C119A0012ABF7DFEB157E31DC73EB5
:1039F000EB9C2B8AE6E55ABE7CD5CF5A3AD9E53DF9
:103A0000203A0008000000205C0000006C01000863
:103A10007C3A00085C0000209C0800008801000837
:103A20000000000000000000000000000000000096
:103A30000000000000000000000000000000000086
:103A40000000000000000000000000000100000075
:103A5000100000000000000000127A0000000000CA
:103A60000000000000000000000000000000000056
:0C3A70000000000000000000000000004A
:0400000508000131BD
:00000001FF
